{
  "contractName": "OrderBook",
  "abi": [
    {
      "constant": true,
      "inputs": [
        {
          "internalType": "uint256",
          "name": "",
          "type": "uint256"
        }
      ],
      "name": "buyData",
      "outputs": [
        {
          "internalType": "string",
          "name": "name",
          "type": "string"
        },
        {
          "internalType": "uint256",
          "name": "offerPrice",
          "type": "uint256"
        }
      ],
      "payable": false,
      "stateMutability": "view",
      "type": "function"
    },
    {
      "constant": true,
      "inputs": [
        {
          "internalType": "uint256",
          "name": "",
          "type": "uint256"
        }
      ],
      "name": "sellData",
      "outputs": [
        {
          "internalType": "string",
          "name": "name",
          "type": "string"
        },
        {
          "internalType": "uint256",
          "name": "demandPrice",
          "type": "uint256"
        }
      ],
      "payable": false,
      "stateMutability": "view",
      "type": "function"
    },
    {
      "constant": false,
      "inputs": [
        {
          "internalType": "uint256",
          "name": "demandPrice",
          "type": "uint256"
        },
        {
          "internalType": "string",
          "name": "assetName",
          "type": "string"
        }
      ],
      "name": "sellerOrder",
      "outputs": [],
      "payable": false,
      "stateMutability": "nonpayable",
      "type": "function"
    },
    {
      "constant": false,
      "inputs": [
        {
          "internalType": "uint256",
          "name": "offerPrice",
          "type": "uint256"
        },
        {
          "internalType": "string",
          "name": "assetName",
          "type": "string"
        }
      ],
      "name": "buyOrder",
      "outputs": [],
      "payable": false,
      "stateMutability": "nonpayable",
      "type": "function"
    },
    {
      "constant": true,
      "inputs": [],
      "name": "getLength",
      "outputs": [
        {
          "internalType": "uint256",
          "name": "",
          "type": "uint256"
        },
        {
          "internalType": "uint256",
          "name": "",
          "type": "uint256"
        }
      ],
      "payable": false,
      "stateMutability": "view",
      "type": "function"
    },
    {
      "constant": false,
      "inputs": [],
      "name": "matchOrder",
      "outputs": [
        {
          "internalType": "string",
          "name": "",
          "type": "string"
        }
      ],
      "payable": false,
      "stateMutability": "nonpayable",
      "type": "function"
    }
  ],
  "bytecode": "0x608060405234801561001057600080fd5b50610bbd806100206000396000f3fe608060405234801561001057600080fd5b50600436106100625760003560e01c80633b7d01c014610067578063453451a41461012c578063b00292be146101da578063be1c766b1461025d578063ca209dce14610282578063eb7f876c14610330575b600080fd5b61012a6004803603604081101561007d57600080fd5b8101908080359060200190929190803590602001906401000000008111156100a457600080fd5b8201836020820111156100b657600080fd5b803590602001918460018302840111640100000000831117156100d857600080fd5b91908080601f016020809104026020016040519081016040528093929190818152602001838380828437600081840152601f19601f8201169050808301925050505050505091929192905050506103f5565b005b6101586004803603602081101561014257600080fd5b810190808035906020019092919050505061046e565b6040518080602001838152602001828103825284818151815260200191508051906020019080838360005b8381101561019e578082015181840152602081019050610183565b50505050905090810190601f1680156101cb5780820380516001836020036101000a031916815260200191505b50935050505060405180910390f35b6101e2610537565b6040518080602001828103825283818151815260200191508051906020019080838360005b83811015610222578082015181840152602081019050610207565b50505050905090810190601f16801561024f5780820380516001836020036101000a031916815260200191505b509250505060405180910390f35b610265610759565b604051808381526020018281526020019250505060405180910390f35b6102ae6004803603602081101561029857600080fd5b8101908080359060200190929190505050610770565b6040518080602001838152602001828103825284818151815260200191508051906020019080838360005b838110156102f45780820151818401526020810190506102d9565b50505050905090810190601f1680156103215780820380516001836020036101000a031916815260200191505b50935050505060405180910390f35b6103f36004803603604081101561034657600080fd5b81019080803590602001909291908035906020019064010000000081111561036d57600080fd5b82018360208201111561037f57600080fd5b803590602001918460018302840111640100000000831117156103a157600080fd5b91908080601f016020809104026020016040519081016040528093929190818152602001838380828437600081840152601f19601f820116905080830192505050505050509192919290505050610839565b005b6000604051806040016040528083815260200184815250908060018154018082558091505090600182039060005260206000209060020201600090919290919091506000820151816000019080519060200190610453929190610a14565b5060208201518160010155505050610469610537565b505050565b6000818154811061047b57fe5b9060005260206000209060020201600091509050806000018054600181600116156101000203166002900480601f0160208091040260200160405190810160405280929190818152602001828054600181600116156101000203166002900480156105275780601f106104fc57610100808354040283529160200191610527565b820191906000526020600020905b81548152906001019060200180831161050a57829003601f168201915b5050505050908060010154905082565b606060008090505b60018054905081101561071c5760008090505b60008054905081101561070e576000818154811061056c57fe5b906000526020600020906002020160000160405180828054600181600116156101000203166002900480156105d85780601f106105b65761010080835404028352918201916105d8565b820191906000526020600020905b8154815290600101906020018083116105c4575b50509150506040518091039020600183815481106105f257fe5b9060005260206000209060020201600001604051808280546001816001161561010002031660029004801561065e5780601f1061063c57610100808354040283529182019161065e565b820191906000526020600020905b81548152906001019060200180831161064a575b505091505060405180910390201480156106b357506000818154811061068057fe5b9060005260206000209060020201600101546001838154811061069f57fe5b906000526020600020906002020160010154145b15610701576106c282826108b2565b6040518060400160405280600781526020017f737563636573730000000000000000000000000000000000000000000000000081525092505050610756565b8080600101915050610552565b50808060010191505061053f565b506040518060400160405280600981526020017f4e6f7420466f756e64000000000000000000000000000000000000000000000081525090505b90565b600080600080549050600180549050915091509091565b6001818154811061077d57fe5b9060005260206000209060020201600091509050806000018054600181600116156101000203166002900480601f0160208091040260200160405190810160405280929190818152602001828054600181600116156101000203166002900480156108295780601f106107fe57610100808354040283529160200191610829565b820191906000526020600020905b81548152906001019060200180831161080c57829003601f168201915b5050505050908060010154905082565b6001604051806040016040528083815260200184815250908060018154018082558091505090600182039060005260206000209060020201600090919290919091506000820151816000019080519060200190610897929190610a14565b50602082015181600101555050506108ad610537565b505050565b600180808054905003815481106108c557fe5b9060005260206000209060020201600183815481106108e057fe5b906000526020600020906002020160008201816000019080546001816001161561010002031660029004610915929190610a94565b50600182015481600101559050506001808080549050038154811061093657fe5b9060005260206000209060020201600080820160006109559190610b1b565b6001820160009055505060006001600080549050038154811061097457fe5b90600052602060002090600202016000828154811061098f57fe5b9060005260206000209060020201600082018160000190805460018160011615610100020316600290046109c4929190610a94565b50600182015481600101559050506000600160008054905003815481106109e757fe5b906000526020600020906002020160008082016000610a069190610b1b565b600182016000905550505050565b828054600181600116156101000203166002900490600052602060002090601f016020900481019282601f10610a5557805160ff1916838001178555610a83565b82800160010185558215610a83579182015b82811115610a82578251825591602001919060010190610a67565b5b509050610a909190610b63565b5090565b828054600181600116156101000203166002900490600052602060002090601f016020900481019282601f10610acd5780548555610b0a565b82800160010185558215610b0a57600052602060002091601f016020900482015b82811115610b09578254825591600101919060010190610aee565b5b509050610b179190610b63565b5090565b50805460018160011615610100020316600290046000825580601f10610b415750610b60565b601f016020900490600052602060002090810190610b5f9190610b63565b5b50565b610b8591905b80821115610b81576000816000905550600101610b69565b5090565b9056fea265627a7a723158208cf1e15debd6b9b872ea5266bd9c384f9cdbce1f8bf0324e5d1f61160942ad0f64736f6c63430005100032",
  "source": "// SPDX-License-Identifier: GPL-3.0\r\n\r\npragma solidity >=0.4.22 <0.9.0;\r\n\r\ncontract OrderBook {\r\n    struct Sell_Data {\r\n        string name;\r\n        uint256 demandPrice;\r\n    }\r\n\r\n    struct Buy_Data {\r\n        string name;\r\n        uint256 offerPrice;\r\n    }\r\n\r\n    Sell_Data[] public sellData;\r\n\r\n    Buy_Data[] public buyData;\r\n\r\n    function sellerOrder(uint256 demandPrice, string memory assetName) public {\r\n        sellData.push(Sell_Data({name: assetName, demandPrice: demandPrice}));\r\n        matchOrder();\r\n    }\r\n\r\n    function buyOrder(uint256 offerPrice, string memory assetName) public {\r\n        buyData.push(Buy_Data({name: assetName, offerPrice: offerPrice}));\r\n        matchOrder();\r\n    }\r\n\r\n    function getLength() public view returns (uint256, uint256) {\r\n        return (sellData.length, buyData.length);\r\n    }\r\n\r\n    function removeOrderAtIndex(uint256 buyIndex, uint256 sellIndex) internal {\r\n        buyData[buyIndex] = buyData[buyData.length - 1];\r\n        delete buyData[buyData.length - 1];\r\n        //   buyData.pop();\r\n\r\n        sellData[sellIndex] = sellData[sellData.length - 1];\r\n        delete sellData[sellData.length - 1];\r\n        //   sellData.pop();// dosnot work maybe because of version\r\n    }\r\n\r\n    function matchOrder() public returns (string memory) {\r\n        for (uint256 i = 0; i < buyData.length; i++) {\r\n            for (uint256 j = 0; j < sellData.length; j++) {\r\n                if (\r\n                    keccak256(bytes(buyData[i].name)) ==\r\n                    keccak256(bytes(sellData[j].name)) &&\r\n                    buyData[i].offerPrice == sellData[j].demandPrice\r\n                ) {\r\n                    removeOrderAtIndex(i, j);\r\n\r\n                    return \"success\";\r\n                }\r\n            }\r\n        }\r\n\r\n        return \"Not Found\";\r\n    }\r\n}\r\n",
  "sourcePath": "E:\\marketPlace-order-book\\contracts\\marketplace.sol",
  "compiler": {
    "name": "solc",
    "version": "0.5.16+commit.9c3226ce.Emscripten.clang"
  },
  "schemaVersion": "3.4.3",
  "updatedAt": "2021-10-10T00:50:49.055Z",
  "devdoc": {
    "methods": {}
  },
  "userdoc": {
    "methods": {}
  }
}